{
  "_format": "hh-sol-artifact-1",
  "contractName": "RunnerCollection",
  "sourceName": "contracts/RunnerCollection.sol",
  "abi": [
    {
      "inputs": [
        {
          "internalType": "string",
          "name": "_name",
          "type": "string"
        },
        {
          "internalType": "string",
          "name": "_symbol",
          "type": "string"
        },
        {
          "internalType": "string",
          "name": "_baseUri",
          "type": "string"
        }
      ],
      "stateMutability": "nonpayable",
      "type": "constructor"
    },
    {
      "anonymous": false,
      "inputs": [
        {
          "indexed": true,
          "internalType": "address",
          "name": "account",
          "type": "address"
        },
        {
          "indexed": true,
          "internalType": "address",
          "name": "operator",
          "type": "address"
        },
        {
          "indexed": false,
          "internalType": "bool",
          "name": "approved",
          "type": "bool"
        }
      ],
      "name": "ApprovalForAll",
      "type": "event"
    },
    {
      "anonymous": false,
      "inputs": [
        {
          "indexed": true,
          "internalType": "address",
          "name": "operator",
          "type": "address"
        },
        {
          "indexed": true,
          "internalType": "address",
          "name": "from",
          "type": "address"
        },
        {
          "indexed": true,
          "internalType": "address",
          "name": "to",
          "type": "address"
        },
        {
          "indexed": false,
          "internalType": "uint256[]",
          "name": "ids",
          "type": "uint256[]"
        },
        {
          "indexed": false,
          "internalType": "uint256[]",
          "name": "values",
          "type": "uint256[]"
        }
      ],
      "name": "TransferBatch",
      "type": "event"
    },
    {
      "anonymous": false,
      "inputs": [
        {
          "indexed": true,
          "internalType": "address",
          "name": "operator",
          "type": "address"
        },
        {
          "indexed": true,
          "internalType": "address",
          "name": "from",
          "type": "address"
        },
        {
          "indexed": true,
          "internalType": "address",
          "name": "to",
          "type": "address"
        },
        {
          "indexed": false,
          "internalType": "uint256",
          "name": "id",
          "type": "uint256"
        },
        {
          "indexed": false,
          "internalType": "uint256",
          "name": "value",
          "type": "uint256"
        }
      ],
      "name": "TransferSingle",
      "type": "event"
    },
    {
      "anonymous": false,
      "inputs": [
        {
          "indexed": false,
          "internalType": "string",
          "name": "value",
          "type": "string"
        },
        {
          "indexed": true,
          "internalType": "uint256",
          "name": "id",
          "type": "uint256"
        }
      ],
      "name": "URI",
      "type": "event"
    },
    {
      "inputs": [
        {
          "internalType": "address",
          "name": "account",
          "type": "address"
        },
        {
          "internalType": "uint256",
          "name": "id",
          "type": "uint256"
        }
      ],
      "name": "balanceOf",
      "outputs": [
        {
          "internalType": "uint256",
          "name": "",
          "type": "uint256"
        }
      ],
      "stateMutability": "view",
      "type": "function"
    },
    {
      "inputs": [
        {
          "internalType": "address[]",
          "name": "accounts",
          "type": "address[]"
        },
        {
          "internalType": "uint256[]",
          "name": "ids",
          "type": "uint256[]"
        }
      ],
      "name": "balanceOfBatch",
      "outputs": [
        {
          "internalType": "uint256[]",
          "name": "",
          "type": "uint256[]"
        }
      ],
      "stateMutability": "view",
      "type": "function"
    },
    {
      "inputs": [],
      "name": "baseUri",
      "outputs": [
        {
          "internalType": "string",
          "name": "",
          "type": "string"
        }
      ],
      "stateMutability": "view",
      "type": "function"
    },
    {
      "inputs": [
        {
          "internalType": "address",
          "name": "account",
          "type": "address"
        },
        {
          "internalType": "address",
          "name": "operator",
          "type": "address"
        }
      ],
      "name": "isApprovedForAll",
      "outputs": [
        {
          "internalType": "bool",
          "name": "",
          "type": "bool"
        }
      ],
      "stateMutability": "view",
      "type": "function"
    },
    {
      "inputs": [
        {
          "internalType": "uint256",
          "name": "amount",
          "type": "uint256"
        }
      ],
      "name": "mint",
      "outputs": [],
      "stateMutability": "nonpayable",
      "type": "function"
    },
    {
      "inputs": [],
      "name": "name",
      "outputs": [
        {
          "internalType": "string",
          "name": "",
          "type": "string"
        }
      ],
      "stateMutability": "view",
      "type": "function"
    },
    {
      "inputs": [
        {
          "internalType": "address",
          "name": "from",
          "type": "address"
        },
        {
          "internalType": "address",
          "name": "to",
          "type": "address"
        },
        {
          "internalType": "uint256[]",
          "name": "ids",
          "type": "uint256[]"
        },
        {
          "internalType": "uint256[]",
          "name": "amounts",
          "type": "uint256[]"
        },
        {
          "internalType": "bytes",
          "name": "data",
          "type": "bytes"
        }
      ],
      "name": "safeBatchTransferFrom",
      "outputs": [],
      "stateMutability": "nonpayable",
      "type": "function"
    },
    {
      "inputs": [
        {
          "internalType": "address",
          "name": "from",
          "type": "address"
        },
        {
          "internalType": "address",
          "name": "to",
          "type": "address"
        },
        {
          "internalType": "uint256",
          "name": "id",
          "type": "uint256"
        },
        {
          "internalType": "uint256",
          "name": "amount",
          "type": "uint256"
        },
        {
          "internalType": "bytes",
          "name": "data",
          "type": "bytes"
        }
      ],
      "name": "safeTransferFrom",
      "outputs": [],
      "stateMutability": "nonpayable",
      "type": "function"
    },
    {
      "inputs": [
        {
          "internalType": "address",
          "name": "operator",
          "type": "address"
        },
        {
          "internalType": "bool",
          "name": "approved",
          "type": "bool"
        }
      ],
      "name": "setApprovalForAll",
      "outputs": [],
      "stateMutability": "nonpayable",
      "type": "function"
    },
    {
      "inputs": [
        {
          "internalType": "bytes4",
          "name": "interfaceId",
          "type": "bytes4"
        }
      ],
      "name": "supportsInterface",
      "outputs": [
        {
          "internalType": "bool",
          "name": "",
          "type": "bool"
        }
      ],
      "stateMutability": "view",
      "type": "function"
    },
    {
      "inputs": [],
      "name": "symbol",
      "outputs": [
        {
          "internalType": "string",
          "name": "",
          "type": "string"
        }
      ],
      "stateMutability": "view",
      "type": "function"
    },
    {
      "inputs": [],
      "name": "tokenCount",
      "outputs": [
        {
          "internalType": "uint256",
          "name": "",
          "type": "uint256"
        }
      ],
      "stateMutability": "view",
      "type": "function"
    },
    {
      "inputs": [
        {
          "internalType": "uint256",
          "name": "_tokenId",
          "type": "uint256"
        }
      ],
      "name": "uri",
      "outputs": [
        {
          "internalType": "string",
          "name": "",
          "type": "string"
        }
      ],
      "stateMutability": "view",
      "type": "function"
    }
  ],
  "bytecode": "0x60806040523480156200001157600080fd5b5060405162003252380380620032528339818101604052810190620000379190620001dc565b8062000049816200009e60201b60201c565b50826003908051906020019062000062929190620000ba565b5081600490805190602001906200007b929190620000ba565b50806006908051906020019062000094929190620000ba565b50505050620003ed565b8060029080519060200190620000b6929190620000ba565b5050565b828054620000c89062000312565b90600052602060002090601f016020900481019282620000ec576000855562000138565b82601f106200010757805160ff191683800117855562000138565b8280016001018555821562000138579182015b82811115620001375782518255916020019190600101906200011a565b5b5090506200014791906200014b565b5090565b5b80821115620001665760008160009055506001016200014c565b5090565b6000620001816200017b84620002a6565b6200027d565b9050828152602081018484840111156200019a57600080fd5b620001a7848285620002dc565b509392505050565b600082601f830112620001c157600080fd5b8151620001d38482602086016200016a565b91505092915050565b600080600060608486031215620001f257600080fd5b600084015167ffffffffffffffff8111156200020d57600080fd5b6200021b86828701620001af565b935050602084015167ffffffffffffffff8111156200023957600080fd5b6200024786828701620001af565b925050604084015167ffffffffffffffff8111156200026557600080fd5b6200027386828701620001af565b9150509250925092565b6000620002896200029c565b905062000297828262000348565b919050565b6000604051905090565b600067ffffffffffffffff821115620002c457620002c3620003ad565b5b620002cf82620003dc565b9050602081019050919050565b60005b83811015620002fc578082015181840152602081019050620002df565b838111156200030c576000848401525b50505050565b600060028204905060018216806200032b57607f821691505b602082108114156200034257620003416200037e565b5b50919050565b6200035382620003dc565b810181811067ffffffffffffffff82111715620003755762000374620003ad565b5b80604052505050565b7f4e487b7100000000000000000000000000000000000000000000000000000000600052602260045260246000fd5b7f4e487b7100000000000000000000000000000000000000000000000000000000600052604160045260246000fd5b6000601f19601f8301169050919050565b612e5580620003fd6000396000f3fe608060405234801561001057600080fd5b50600436106100ce5760003560e01c806395d89b411161008c578063a0712d6811610066578063a0712d6814610227578063a22cb46514610243578063e985e9c51461025f578063f242432a1461028f576100ce565b806395d89b41146101cd5780639abc8320146101eb5780639f181b5e14610209576100ce565b8062fdd58e146100d357806301ffc9a71461010357806306fdde03146101335780630e89341c146101515780632eb2c2d6146101815780634e1273f41461019d575b600080fd5b6100ed60048036038101906100e89190611de2565b6102ab565b6040516100fa9190612521565b60405180910390f35b61011d60048036038101906101189190611e8a565b610374565b60405161012a91906123a4565b60405180910390f35b61013b610456565b60405161014891906123bf565b60405180910390f35b61016b60048036038101906101669190611edc565b6104e4565b60405161017891906123bf565b60405180910390f35b61019b60048036038101906101969190611c58565b610518565b005b6101b760048036038101906101b29190611e1e565b6105b9565b6040516101c4919061234b565b60405180910390f35b6101d561076a565b6040516101e291906123bf565b60405180910390f35b6101f36107f8565b60405161020091906123bf565b60405180910390f35b610211610886565b60405161021e9190612521565b60405180910390f35b610241600480360381019061023c9190611edc565b61088c565b005b61025d60048036038101906102589190611da6565b6108c6565b005b61027960048036038101906102749190611c1c565b6108dc565b60405161028691906123a4565b60405180910390f35b6102a960048036038101906102a49190611d17565b610970565b005b60008073ffffffffffffffffffffffffffffffffffffffff168373ffffffffffffffffffffffffffffffffffffffff16141561031c576040517f08c379a000000000000000000000000000000000000000000000000000000000815260040161031390612441565b60405180910390fd5b60008083815260200190815260200160002060008473ffffffffffffffffffffffffffffffffffffffff1673ffffffffffffffffffffffffffffffffffffffff16815260200190815260200160002054905092915050565b60007fd9b67a26000000000000000000000000000000000000000000000000000000007bffffffffffffffffffffffffffffffffffffffffffffffffffffffff1916827bffffffffffffffffffffffffffffffffffffffffffffffffffffffff1916148061043f57507f0e89341c000000000000000000000000000000000000000000000000000000007bffffffffffffffffffffffffffffffffffffffffffffffffffffffff1916827bffffffffffffffffffffffffffffffffffffffffffffffffffffffff1916145b8061044f575061044e82610a11565b5b9050919050565b6003805461046390612815565b80601f016020809104026020016040519081016040528092919081815260200182805461048f90612815565b80156104dc5780601f106104b1576101008083540402835291602001916104dc565b820191906000526020600020905b8154815290600101906020018083116104bf57829003601f168201915b505050505081565b606060066104f183610a7b565b60405160200161050292919061225a565b6040516020818303038152906040529050919050565b610520610c28565b73ffffffffffffffffffffffffffffffffffffffff168573ffffffffffffffffffffffffffffffffffffffff161480610566575061056585610560610c28565b6108dc565b5b6105a5576040517f08c379a000000000000000000000000000000000000000000000000000000000815260040161059c90612401565b60405180910390fd5b6105b28585858585610c30565b5050505050565b606081518351146105ff576040517f08c379a00000000000000000000000000000000000000000000000000000000081526004016105f6906124c1565b60405180910390fd5b6000835167ffffffffffffffff811115610642577f4e487b7100000000000000000000000000000000000000000000000000000000600052604160045260246000fd5b6040519080825280602002602001820160405280156106705781602001602082028036833780820191505090505b50905060005b845181101561075f576107098582815181106106bb577f4e487b7100000000000000000000000000000000000000000000000000000000600052603260045260246000fd5b60200260200101518583815181106106fc577f4e487b7100000000000000000000000000000000000000000000000000000000600052603260045260246000fd5b60200260200101516102ab565b828281518110610742577f4e487b7100000000000000000000000000000000000000000000000000000000600052603260045260246000fd5b6020026020010181815250508061075890612878565b9050610676565b508091505092915050565b6004805461077790612815565b80601f01602080910402602001604051908101604052809291908181526020018280546107a390612815565b80156107f05780601f106107c5576101008083540402835291602001916107f0565b820191906000526020600020905b8154815290600101906020018083116107d357829003601f168201915b505050505081565b6006805461080590612815565b80601f016020809104026020016040519081016040528092919081815260200182805461083190612815565b801561087e5780601f106108535761010080835404028352916020019161087e565b820191906000526020600020905b81548152906001019060200180831161086157829003601f168201915b505050505081565b60055481565b60016005600082825461089f91906126a4565b925050819055506108c3336005548360405180602001604052806000815250610f9e565b50565b6108d86108d1610c28565b838361114f565b5050565b6000600160008473ffffffffffffffffffffffffffffffffffffffff1673ffffffffffffffffffffffffffffffffffffffff16815260200190815260200160002060008373ffffffffffffffffffffffffffffffffffffffff1673ffffffffffffffffffffffffffffffffffffffff16815260200190815260200160002060009054906101000a900460ff16905092915050565b610978610c28565b73ffffffffffffffffffffffffffffffffffffffff168573ffffffffffffffffffffffffffffffffffffffff1614806109be57506109bd856109b8610c28565b6108dc565b5b6109fd576040517f08c379a00000000000000000000000000000000000000000000000000000000081526004016109f490612401565b60405180910390fd5b610a0a85858585856112bc565b5050505050565b60007f01ffc9a7000000000000000000000000000000000000000000000000000000007bffffffffffffffffffffffffffffffffffffffffffffffffffffffff1916827bffffffffffffffffffffffffffffffffffffffffffffffffffffffff1916149050919050565b60606000821415610ac3576040518060400160405280600181526020017f30000000000000000000000000000000000000000000000000000000000000008152509050610c23565b600082905060005b60008214610af5578080610ade90612878565b915050600a82610aee91906126fa565b9150610acb565b60008167ffffffffffffffff811115610b37577f4e487b7100000000000000000000000000000000000000000000000000000000600052604160045260246000fd5b6040519080825280601f01601f191660200182016040528015610b695781602001600182028036833780820191505090505b5090505b60008514610c1c57600182610b82919061272b565b9150600a85610b9191906128c1565b6030610b9d91906126a4565b60f81b818381518110610bd9577f4e487b7100000000000000000000000000000000000000000000000000000000600052603260045260246000fd5b60200101907effffffffffffffffffffffffffffffffffffffffffffffffffffffffffffff1916908160001a905350600a85610c1591906126fa565b9450610b6d565b8093505050505b919050565b600033905090565b8151835114610c74576040517f08c379a0000000000000000000000000000000000000000000000000000000008152600401610c6b906124e1565b60405180910390fd5b600073ffffffffffffffffffffffffffffffffffffffff168473ffffffffffffffffffffffffffffffffffffffff161415610ce4576040517f08c379a0000000000000000000000000000000000000000000000000000000008152600401610cdb90612461565b60405180910390fd5b6000610cee610c28565b9050610cfe818787878787611558565b60005b8451811015610efb576000858281518110610d45577f4e487b7100000000000000000000000000000000000000000000000000000000600052603260045260246000fd5b602002602001015190506000858381518110610d8a577f4e487b7100000000000000000000000000000000000000000000000000000000600052603260045260246000fd5b60200260200101519050600080600084815260200190815260200160002060008b73ffffffffffffffffffffffffffffffffffffffff1673ffffffffffffffffffffffffffffffffffffffff16815260200190815260200160002054905081811015610e2b576040517f08c379a0000000000000000000000000000000000000000000000000000000008152600401610e2290612481565b60405180910390fd5b81810360008085815260200190815260200160002060008c73ffffffffffffffffffffffffffffffffffffffff1673ffffffffffffffffffffffffffffffffffffffff168152602001908152602001600020819055508160008085815260200190815260200160002060008b73ffffffffffffffffffffffffffffffffffffffff1673ffffffffffffffffffffffffffffffffffffffff1681526020019081526020016000206000828254610ee091906126a4565b9250508190555050505080610ef490612878565b9050610d01565b508473ffffffffffffffffffffffffffffffffffffffff168673ffffffffffffffffffffffffffffffffffffffff168273ffffffffffffffffffffffffffffffffffffffff167f4a39dc06d4c0dbc64b70af90fd698a233a518aa5d07e595d983b8c0526c8f7fb8787604051610f7292919061236d565b60405180910390a4610f88818787878787611560565b610f96818787878787611568565b505050505050565b600073ffffffffffffffffffffffffffffffffffffffff168473ffffffffffffffffffffffffffffffffffffffff16141561100e576040517f08c379a000000000000000000000000000000000000000000000000000000000815260040161100590612501565b60405180910390fd5b6000611018610c28565b905060006110258561174f565b905060006110328561174f565b905061104383600089858589611558565b8460008088815260200190815260200160002060008973ffffffffffffffffffffffffffffffffffffffff1673ffffffffffffffffffffffffffffffffffffffff16815260200190815260200160002060008282546110a291906126a4565b925050819055508673ffffffffffffffffffffffffffffffffffffffff16600073ffffffffffffffffffffffffffffffffffffffff168473ffffffffffffffffffffffffffffffffffffffff167fc3d58168c5ae7397731d063d5bbf3d657854427343f4c083240f7aacaa2d0f62898960405161112092919061253c565b60405180910390a461113783600089858589611560565b61114683600089898989611815565b50505050505050565b8173ffffffffffffffffffffffffffffffffffffffff168373ffffffffffffffffffffffffffffffffffffffff1614156111be576040517f08c379a00000000000000000000000000000000000000000000000000000000081526004016111b5906124a1565b60405180910390fd5b80600160008573ffffffffffffffffffffffffffffffffffffffff1673ffffffffffffffffffffffffffffffffffffffff16815260200190815260200160002060008473ffffffffffffffffffffffffffffffffffffffff1673ffffffffffffffffffffffffffffffffffffffff16815260200190815260200160002060006101000a81548160ff0219169083151502179055508173ffffffffffffffffffffffffffffffffffffffff168373ffffffffffffffffffffffffffffffffffffffff167f17307eab39ab6107e8899845ad3d59bd9653f200f220920489ca2b5937696c31836040516112af91906123a4565b60405180910390a3505050565b600073ffffffffffffffffffffffffffffffffffffffff168473ffffffffffffffffffffffffffffffffffffffff16141561132c576040517f08c379a000000000000000000000000000000000000000000000000000000000815260040161132390612461565b60405180910390fd5b6000611336610c28565b905060006113438561174f565b905060006113508561174f565b9050611360838989858589611558565b600080600088815260200190815260200160002060008a73ffffffffffffffffffffffffffffffffffffffff1673ffffffffffffffffffffffffffffffffffffffff168152602001908152602001600020549050858110156113f7576040517f08c379a00000000000000000000000000000000000000000000000000000000081526004016113ee90612481565b60405180910390fd5b85810360008089815260200190815260200160002060008b73ffffffffffffffffffffffffffffffffffffffff1673ffffffffffffffffffffffffffffffffffffffff168152602001908152602001600020819055508560008089815260200190815260200160002060008a73ffffffffffffffffffffffffffffffffffffffff1673ffffffffffffffffffffffffffffffffffffffff16815260200190815260200160002060008282546114ac91906126a4565b925050819055508773ffffffffffffffffffffffffffffffffffffffff168973ffffffffffffffffffffffffffffffffffffffff168573ffffffffffffffffffffffffffffffffffffffff167fc3d58168c5ae7397731d063d5bbf3d657854427343f4c083240f7aacaa2d0f628a8a60405161152992919061253c565b60405180910390a461153f848a8a86868a611560565b61154d848a8a8a8a8a611815565b505050505050505050565b505050505050565b505050505050565b6115878473ffffffffffffffffffffffffffffffffffffffff166119fc565b15611747578373ffffffffffffffffffffffffffffffffffffffff1663bc197c8187878686866040518663ffffffff1660e01b81526004016115cd959493929190612289565b602060405180830381600087803b1580156115e757600080fd5b505af192505050801561161857506040513d601f19601f820116820180604052508101906116159190611eb3565b60015b6116be576116246129ae565b806308c379a014156116815750611639612d2d565b806116445750611683565b806040517f08c379a000000000000000000000000000000000000000000000000000000000815260040161167891906123bf565b60405180910390fd5b505b6040517f08c379a00000000000000000000000000000000000000000000000000000000081526004016116b5906123e1565b60405180910390fd5b63bc197c8160e01b7bffffffffffffffffffffffffffffffffffffffffffffffffffffffff1916817bffffffffffffffffffffffffffffffffffffffffffffffffffffffff191614611745576040517f08c379a000000000000000000000000000000000000000000000000000000000815260040161173c90612421565b60405180910390fd5b505b505050505050565b60606000600167ffffffffffffffff811115611794577f4e487b7100000000000000000000000000000000000000000000000000000000600052604160045260246000fd5b6040519080825280602002602001820160405280156117c25781602001602082028036833780820191505090505b5090508281600081518110611800577f4e487b7100000000000000000000000000000000000000000000000000000000600052603260045260246000fd5b60200260200101818152505080915050919050565b6118348473ffffffffffffffffffffffffffffffffffffffff166119fc565b156119f4578373ffffffffffffffffffffffffffffffffffffffff1663f23a6e6187878686866040518663ffffffff1660e01b815260040161187a9594939291906122f1565b602060405180830381600087803b15801561189457600080fd5b505af19250505080156118c557506040513d601f19601f820116820180604052508101906118c29190611eb3565b60015b61196b576118d16129ae565b806308c379a0141561192e57506118e6612d2d565b806118f15750611930565b806040517f08c379a000000000000000000000000000000000000000000000000000000000815260040161192591906123bf565b60405180910390fd5b505b6040517f08c379a0000000000000000000000000000000000000000000000000000000008152600401611962906123e1565b60405180910390fd5b63f23a6e6160e01b7bffffffffffffffffffffffffffffffffffffffffffffffffffffffff1916817bffffffffffffffffffffffffffffffffffffffffffffffffffffffff1916146119f2576040517f08c379a00000000000000000000000000000000000000000000000000000000081526004016119e990612421565b60405180910390fd5b505b505050505050565b6000808273ffffffffffffffffffffffffffffffffffffffff163b119050919050565b6000611a32611a2d8461258a565b612565565b90508083825260208201905082856020860282011115611a5157600080fd5b60005b85811015611a815781611a678882611b35565b845260208401935060208301925050600181019050611a54565b5050509392505050565b6000611a9e611a99846125b6565b612565565b90508083825260208201905082856020860282011115611abd57600080fd5b60005b85811015611aed5781611ad38882611c07565b845260208401935060208301925050600181019050611ac0565b5050509392505050565b6000611b0a611b05846125e2565b612565565b905082815260208101848484011115611b2257600080fd5b611b2d8482856127d3565b509392505050565b600081359050611b4481612dc3565b92915050565b600082601f830112611b5b57600080fd5b8135611b6b848260208601611a1f565b91505092915050565b600082601f830112611b8557600080fd5b8135611b95848260208601611a8b565b91505092915050565b600081359050611bad81612dda565b92915050565b600081359050611bc281612df1565b92915050565b600081519050611bd781612df1565b92915050565b600082601f830112611bee57600080fd5b8135611bfe848260208601611af7565b91505092915050565b600081359050611c1681612e08565b92915050565b60008060408385031215611c2f57600080fd5b6000611c3d85828601611b35565b9250506020611c4e85828601611b35565b9150509250929050565b600080600080600060a08688031215611c7057600080fd5b6000611c7e88828901611b35565b9550506020611c8f88828901611b35565b945050604086013567ffffffffffffffff811115611cac57600080fd5b611cb888828901611b74565b935050606086013567ffffffffffffffff811115611cd557600080fd5b611ce188828901611b74565b925050608086013567ffffffffffffffff811115611cfe57600080fd5b611d0a88828901611bdd565b9150509295509295909350565b600080600080600060a08688031215611d2f57600080fd5b6000611d3d88828901611b35565b9550506020611d4e88828901611b35565b9450506040611d5f88828901611c07565b9350506060611d7088828901611c07565b925050608086013567ffffffffffffffff811115611d8d57600080fd5b611d9988828901611bdd565b9150509295509295909350565b60008060408385031215611db957600080fd5b6000611dc785828601611b35565b9250506020611dd885828601611b9e565b9150509250929050565b60008060408385031215611df557600080fd5b6000611e0385828601611b35565b9250506020611e1485828601611c07565b9150509250929050565b60008060408385031215611e3157600080fd5b600083013567ffffffffffffffff811115611e4b57600080fd5b611e5785828601611b4a565b925050602083013567ffffffffffffffff811115611e7457600080fd5b611e8085828601611b74565b9150509250929050565b600060208284031215611e9c57600080fd5b6000611eaa84828501611bb3565b91505092915050565b600060208284031215611ec557600080fd5b6000611ed384828501611bc8565b91505092915050565b600060208284031215611eee57600080fd5b6000611efc84828501611c07565b91505092915050565b6000611f11838361223c565b60208301905092915050565b611f268161275f565b82525050565b6000611f3782612638565b611f418185612666565b9350611f4c83612613565b8060005b83811015611f7d578151611f648882611f05565b9750611f6f83612659565b925050600181019050611f50565b5085935050505092915050565b611f9381612771565b82525050565b6000611fa482612643565b611fae8185612677565b9350611fbe8185602086016127e2565b611fc7816129d0565b840191505092915050565b6000611fdd8261264e565b611fe78185612688565b9350611ff78185602086016127e2565b612000816129d0565b840191505092915050565b60006120168261264e565b6120208185612699565b93506120308185602086016127e2565b80840191505092915050565b6000815461204981612815565b6120538186612699565b9450600182166000811461206e576001811461207f576120b2565b60ff198316865281860193506120b2565b61208885612623565b60005b838110156120aa5781548189015260018201915060208101905061208b565b838801955050505b50505092915050565b60006120c8603483612688565b91506120d3826129ee565b604082019050919050565b60006120eb602f83612688565b91506120f682612a3d565b604082019050919050565b600061210e602883612688565b915061211982612a8c565b604082019050919050565b6000612131602a83612688565b915061213c82612adb565b604082019050919050565b6000612154602583612688565b915061215f82612b2a565b604082019050919050565b6000612177602a83612688565b915061218282612b79565b604082019050919050565b600061219a600583612699565b91506121a582612bc8565b600582019050919050565b60006121bd602983612688565b91506121c882612bf1565b604082019050919050565b60006121e0602983612688565b91506121eb82612c40565b604082019050919050565b6000612203602883612688565b915061220e82612c8f565b604082019050919050565b6000612226602183612688565b915061223182612cde565b604082019050919050565b612245816127c9565b82525050565b612254816127c9565b82525050565b6000612266828561203c565b9150612272828461200b565b915061227d8261218d565b91508190509392505050565b600060a08201905061229e6000830188611f1d565b6122ab6020830187611f1d565b81810360408301526122bd8186611f2c565b905081810360608301526122d18185611f2c565b905081810360808301526122e58184611f99565b90509695505050505050565b600060a0820190506123066000830188611f1d565b6123136020830187611f1d565b612320604083018661224b565b61232d606083018561224b565b818103608083015261233f8184611f99565b90509695505050505050565b600060208201905081810360008301526123658184611f2c565b905092915050565b600060408201905081810360008301526123878185611f2c565b9050818103602083015261239b8184611f2c565b90509392505050565b60006020820190506123b96000830184611f8a565b92915050565b600060208201905081810360008301526123d98184611fd2565b905092915050565b600060208201905081810360008301526123fa816120bb565b9050919050565b6000602082019050818103600083015261241a816120de565b9050919050565b6000602082019050818103600083015261243a81612101565b9050919050565b6000602082019050818103600083015261245a81612124565b9050919050565b6000602082019050818103600083015261247a81612147565b9050919050565b6000602082019050818103600083015261249a8161216a565b9050919050565b600060208201905081810360008301526124ba816121b0565b9050919050565b600060208201905081810360008301526124da816121d3565b9050919050565b600060208201905081810360008301526124fa816121f6565b9050919050565b6000602082019050818103600083015261251a81612219565b9050919050565b6000602082019050612536600083018461224b565b92915050565b6000604082019050612551600083018561224b565b61255e602083018461224b565b9392505050565b600061256f612580565b905061257b8282612847565b919050565b6000604051905090565b600067ffffffffffffffff8211156125a5576125a461297f565b5b602082029050602081019050919050565b600067ffffffffffffffff8211156125d1576125d061297f565b5b602082029050602081019050919050565b600067ffffffffffffffff8211156125fd576125fc61297f565b5b612606826129d0565b9050602081019050919050565b6000819050602082019050919050565b60008190508160005260206000209050919050565b600081519050919050565b600081519050919050565b600081519050919050565b6000602082019050919050565b600082825260208201905092915050565b600082825260208201905092915050565b600082825260208201905092915050565b600081905092915050565b60006126af826127c9565b91506126ba836127c9565b9250827fffffffffffffffffffffffffffffffffffffffffffffffffffffffffffffffff038211156126ef576126ee6128f2565b5b828201905092915050565b6000612705826127c9565b9150612710836127c9565b9250826127205761271f612921565b5b828204905092915050565b6000612736826127c9565b9150612741836127c9565b925082821015612754576127536128f2565b5b828203905092915050565b600061276a826127a9565b9050919050565b60008115159050919050565b60007fffffffff0000000000000000000000000000000000000000000000000000000082169050919050565b600073ffffffffffffffffffffffffffffffffffffffff82169050919050565b6000819050919050565b82818337600083830152505050565b60005b838110156128005780820151818401526020810190506127e5565b8381111561280f576000848401525b50505050565b6000600282049050600182168061282d57607f821691505b6020821081141561284157612840612950565b5b50919050565b612850826129d0565b810181811067ffffffffffffffff8211171561286f5761286e61297f565b5b80604052505050565b6000612883826127c9565b91507fffffffffffffffffffffffffffffffffffffffffffffffffffffffffffffffff8214156128b6576128b56128f2565b5b600182019050919050565b60006128cc826127c9565b91506128d7836127c9565b9250826128e7576128e6612921565b5b828206905092915050565b7f4e487b7100000000000000000000000000000000000000000000000000000000600052601160045260246000fd5b7f4e487b7100000000000000000000000000000000000000000000000000000000600052601260045260246000fd5b7f4e487b7100000000000000000000000000000000000000000000000000000000600052602260045260246000fd5b7f4e487b7100000000000000000000000000000000000000000000000000000000600052604160045260246000fd5b600060033d11156129cd5760046000803e6129ca6000516129e1565b90505b90565b6000601f19601f8301169050919050565b60008160e01c9050919050565b7f455243313135353a207472616e7366657220746f206e6f6e204552433131353560008201527f526563656976657220696d706c656d656e746572000000000000000000000000602082015250565b7f455243313135353a2063616c6c6572206973206e6f7420746f6b656e206f776e60008201527f6572206e6f7220617070726f7665640000000000000000000000000000000000602082015250565b7f455243313135353a204552433131353552656365697665722072656a6563746560008201527f6420746f6b656e73000000000000000000000000000000000000000000000000602082015250565b7f455243313135353a2061646472657373207a65726f206973206e6f742061207660008201527f616c6964206f776e657200000000000000000000000000000000000000000000602082015250565b7f455243313135353a207472616e7366657220746f20746865207a65726f20616460008201527f6472657373000000000000000000000000000000000000000000000000000000602082015250565b7f455243313135353a20696e73756666696369656e742062616c616e636520666f60008201527f72207472616e7366657200000000000000000000000000000000000000000000602082015250565b7f2e6a736f6e000000000000000000000000000000000000000000000000000000600082015250565b7f455243313135353a2073657474696e6720617070726f76616c2073746174757360008201527f20666f722073656c660000000000000000000000000000000000000000000000602082015250565b7f455243313135353a206163636f756e747320616e6420696473206c656e67746860008201527f206d69736d617463680000000000000000000000000000000000000000000000602082015250565b7f455243313135353a2069647320616e6420616d6f756e7473206c656e6774682060008201527f6d69736d61746368000000000000000000000000000000000000000000000000602082015250565b7f455243313135353a206d696e7420746f20746865207a65726f2061646472657360008201527f7300000000000000000000000000000000000000000000000000000000000000602082015250565b600060443d1015612d3d57612dc0565b612d45612580565b60043d036004823e80513d602482011167ffffffffffffffff82111715612d6d575050612dc0565b808201805167ffffffffffffffff811115612d8b5750505050612dc0565b80602083010160043d038501811115612da8575050505050612dc0565b612db782602001850186612847565b82955050505050505b90565b612dcc8161275f565b8114612dd757600080fd5b50565b612de381612771565b8114612dee57600080fd5b50565b612dfa8161277d565b8114612e0557600080fd5b50565b612e11816127c9565b8114612e1c57600080fd5b5056fea2646970667358221220d15b40e66ada47aa1f504812aebf52b030165ae531fa0924c6709d3313742f3964736f6c63430008040033",
  "linkReferences": {},
  "deployedLinkReferences": {}
}